:10000000FC7F00207D0500006D05000071050000EB
:1000100000000000000000000000000000000000E0
:100020000000000000000000000000007505000056
:10003000000000000000000079050000A506000097
:1000400010B5064C2378002B07D1054B002B02D0AE
:10005000044800E000BF0123237010BD5C000020B5
:10006000000000008C14000008B5084B002B03D0E2
:100070000748084900E000BF07480368002B03D089
:10008000064B002B00D0984708BDC046000000007A
:100090008C140000600000205800002000000000C8
:1000A000154A164B1178002909D115491878097895
:1000B0004118C9B21970802012494002C8611178F4
:1000C0000131C9B211701978F02902D819780929BB
:1000D00009D80B4908784042C0B2087018780978EE
:1000E0004118C9B2197012781B789A4203D1802244
:1000F000044B5202DA6170477800002001000020B2
:10010000000000200044004170B50368041C988B77
:100110001A1C0821FF32084226D080209983987249
:10012000112353704021144B917150715E68134D2F
:10013000C0202E40800506435E605E69354028433E
:1001400058610F4818600F4818615D680E482840D4
:100150008025AD02284358605868800B80035860A2
:1001600000235171237105E0137ADA0602D5201CB1
:1001700000F0D2FA207970BD94010020FFFFFF8FBC
:100180009400002014010020FF3F00F000230371C1
:100190004371044B016083600B78022213430B70A0
:1001A0007047C0460901000038B5364B2021DA6996
:1001B00001200A43DA61344B06241A7802431A708C
:1001C000324B0F2219789143197019782143197015
:1001D0002F490C782043087019780A401A701A7851
:1001E00060210A431A702B4B2B4A5A805A7852B21C
:1001F000002AFBDB294B01211A780A431A709A78EE
:10020000D107FCD426480268510B1F2211409142AD
:1002100000D1052111408C011D8D22492940214327
:1002200019850468A10C0A401F2A00D11D221C8DCB
:100230001F210A408C4322431A8502680721D20DF0
:100240000A408A4200D103220A40188D1103164A3F
:1002500002400A431A8519787F220A401A701A78D8
:10026000042112480A431A7058621A890C218A43E1
:100270001A811A8901218A431A810021802200F003
:1002800090FF38BD00040040584400413C44004108
:1002900059440041000C004006400000005000415D
:1002A000246080003FF8FFFFFF8FFFFF94010020D4
:1002B000F7B5141C1F4A5F0101971D1CD319061CBA
:1002C0005869271C4000400F03301033C74006D048
:1002D0000F1C8022596812060A435A6009E02F1C3D
:1002E0007B1E9F41144BBF01FF18381C221C00F0DD
:1002F0004FFF01990F48083542181761131C5269C6
:10030000A104920B890C92030A435A6159690B4A62
:100310000A405A616B01F3180222DA71597980227E
:1003200052420A435A716B01F318DB799A07FAD5E6
:10033000201CFEBD9401002014010020FF3F00F0AE
:10034000F8B51A4E051C3378141C002B12D1184B2B
:10035000184A1A645A6C920B92035A64586C164AE3
:1003600002405A64A2235B00EA5C40200243EA5444
:10037000012333704827FF37EA5D0123134012D071
:100380000B4B5A6C9204920CA24202D25C6CA404F5
:10039000A40C081C221C074900F0FAFE0123EB55AF
:1003A0000023337000E01C1C201CF8BD79000020E5
:1003B00094010020D4000020FF3F00F0FF3083793B
:1003C0002022002900D110221343837170470000BE
:1003D000084BFF305A69920B92035A610223037251
:1003E000827980235B4213438371037A9A07FCD599
:1003F0007047C0469401002080235B421943C9B274
:100400008172704770B5A02303225B00C254134B66
:10041000134A5C6CC021144089050C4346255C647A
:10042000FF35402444550F4D30261D6490256D0046
:1004300046555D6B15402943922559636D00802117
:100440004155094D1D63B0256D0044555C6F224038
:100450005A67B2235B00C15470BDC04694010020AE
:10046000FFFFFF8FD40000205401002030B5364A32
:100470001E235168082099430223194351603349D0
:100480008A6902438A613248324A9082908A0343E1
:100490009382D3689807FCD52F4B012018701878E9
:1004A000C40704D52C48407840B20028F7DB01206F
:1004B0009860587840B20028FBDB284C26484460FE
:1004C000587840B20028FBDB82242348E4014480B2
:1004D000587840B20028FBDB908C8024A0439084A5
:1004E000D068C506FCD51E4C1A48C462D4681948A9
:1004F000E506FBD5848C1B4D2C438484D4681548B9
:10050000E506FBD5848C02252C438484D068040640
:10051000FCD51048C0684506F8D5D068C406FCD59F
:1005200000229A605A7852B2002AFBDB0E480A4A2F
:1005300050605A7852B2002AFBDB00230B724B72D8
:100540008B72CB7230BDC0460040004100040040B9
:100550000C06000000080040000C004001050100EE
:10056000B805FF7D040A0000000703000EBEFEE789
:100570000DBEFEE705BEFEE702BEFEE70E4A0F48CF
:1005800038B5824204D10E4A0E4B93420ED10AE096
:100590000D4C9442F7D00023D1188842F3D9E55886
:1005A00004330D60F8E700F011F804E09342FAD24A
:1005B000002102C3FAE7FEE7000000205C000020F3
:1005C000940200205C000020901400002B4A38B5F3
:1005D0001368141C01331ED0D1B200291BD1284B43
:1005E000187801231840274B0AD11D6826498D42EF
:1005F00001D118600FE01960244901390029FCD1AC
:100600001960236883F30888FF239A43204B9A607C
:100610001A4B5B681847FFF729FF62B600F048F8ED
:100620001C4B802252029A60802292029A609A6148
:100630008022D2029A609A61174B184A041C5A60B1
:10064000134AC021106A09060002000A0143116220
:1006500000229A6007221A60A368201C9847104B5A
:10066000002801D001221A701B78002BF4D0002042
:1006700000F082FA00F0FCFAFCE7C046002000001F
:1006800038040040FC7F00203581730748E80100F2
:1006900000ED00E00044004110E000E0E70300004E
:1006A0007A00002008B5FFF7FBFC00F0BDFA08BD9A
:1006B00010B5054B054C2360FFF776FD201C216823
:1006C000FFF764FD201C10BD005000411402002003
:1006D00070B5051CC0B0081C161C0C1C00F069FD90
:1006E00040006A46032302305370107076080123DD
:1006F000E218013A11785A00002906D1281C6946EF
:100700000023FFF7D5FD40B070BDB342F6DA68466E
:1007100081520133ECE70000F7B5BA4A0468137858
:10072000B949271CFF37051C102038720B7053780D
:10073000B648B74E037093783380D1783388090276
:100740000B4333801179B34B198051791888090212
:10075000084318809079B0490880D279088812023D
:1007600002430A8040227A71A84F3A78A64F1202BB
:1007700038780F1C0243A9488446181C624500D1F2
:10078000C2E020DC802149008A4200D16EE109DC10
:10079000812A00D192E0822A00D195E0802A00D0FF
:1007A00064E18BE081235B009A4200D1CFE000DA64
:1007B00058E1C0239B009A4200D157E1984B9A42DE
:1007C00000D14FE152E190231B019A4269D015DC20
:1007D000D023DB009A4222D088231B019A4269D0A1
:1007E000A023DB009A4200D040E1201CFFF7F0FD7F
:1007F0003188286889B2FFF7FFFD3BE1894B9A42B7
:1008000000D12FE100DC31E1874B9A4200D11DE19C
:10081000864B9A4200D029E133886B7122E13388FC
:100820001B0A012B08D10B8812222868934201D899
:100830000A8892B27E4911E133881B0A022B08D143
:100840000B8843222868934201D80A8892B27949DA
:1008500004E133881B0A032B00D007E13388DBB2A5
:10086000012B17D0002B07D0022B00D0FEE00A8806
:100870002868D2B2704911E0042201A86F4900F043
:1008800087FC3B8804222868934201D83A8892B2B8
:1008900001A9E3E00A8828686949D2B2FFF718FF86
:1008A000E8E03388201C2B71FFF792FD201CFFF736
:1008B000A9FDDFE0291C01C90122CFE06149002325
:1008C0000B8028680222CAE05E4900220A8018884C
:1008D000502210405C4A10701E880F203040188053
:1008E0001888032800D9C1E012781B8808335B01FF
:1008F000E418A379002A01D09B0600E0DB06DB0F99
:100900000B8028680222A9E019887F2291434E4A71
:10091000C9B2117018880F2101401980318800294F
:1009200000D0A3E01988002900D19FE0198803298D
:1009300000D99BE012781B8808335B01E318002A7A
:1009400002D020225A718DE0102159718AE002886C
:100950007F239A433C4BD2B21A7001880F220A407F
:1009600002803288002A00D080E00288002A00D16C
:100970007CE00288032A00D978E01B78002B1FD086
:10098000038808335B01E3189B799A066AD50388CC
:10099000202208335B01E3181A71038808335B01D6
:1009A000E318DB795F065DD50388402208335B01DD
:1009B000E318DA710388022208335B01E3181EE0B2
:1009C000038808335B01E3189B79D9064AD503886D
:1009D000102208335B01E3181A71038808335B01A6
:1009E000E318DB799A063DD50388202208335B01A2
:1009F000E318DA710388012208335B01E3181A71E6
:100A000030E0C046940000207E0000207F000020DF
:100A100080000020860000207C00002002030000EF
:100A20000103000021200000A1210000212200007C
:100A3000FC11000004000020EE110000D81100009D
:100A4000DC11000082000020840000200B880822B6
:100A50002868934201D80A8892B207490023FFF719
:100A600027FC07E0201CFFF7B3FC03E0201C01215A
:100A7000FFF7A4FCF7BDC0464800002007B5054BB2
:100A80000122019001A91868131CFFF711FC012035
:100A90000EBDC0461402002013B5054B6C4607344A
:100AA0001868211C0122FFF74BFC207816BDC046B8
:100AB0001402002010B5074C201CFFF725FB031C77
:100AC0000020834205D022684823FF33D05C0123F5
:100AD000184010BD1402002010B5054A0C1C031C60
:100AE000191C10680123221CFFF7E2FB201C10BD1B
:100AF0001402002070B5084C061C201C0D1CFFF7CA
:100B000003FB0023984205D02068311C2A1CFFF704
:100B100017FC031C181C70BD14020020F8B50C4C07
:100B2000051C201C0E1CFFF7EFFA0023271C341CA9
:100B300098420AD0002C07D0291C221C3868FFF7E5
:100B4000FFFB241A2D18F5E7331C181CF8BDC0460E
:100B50001402002008B5031C081C111C9847044B04
:100B60008022D2025A61034B64221A8008BDC0461B
:100B70000044004190000020002802D1014A024BAD
:100B80001A607047601200008402002030B50A1C11
:100B90001C4985B00978031C00292AD0042A01D1F8
:100BA000006804E0022A01D1008800E000785200C9
:100BB00004A98B180B3B9C1AA3420BD00F210140B8
:100BC000092902D83025294300E03731197000097E
:100BD000013BF1E701A930230B7078234B700A2009
:100BE0008B1898700D20D870074B04321B68D8689A
:100BF00003E005490968C868191CFFF7ABFF05B099
:100C000030BDC0468C0000208402002072B6EFF395
:100C10000883044A1360036883F30888436818470D
:100C20007047C046880200200E4B1A88002A09D05F
:100C30001A88013A92B21A80002A03D180220A4B04
:100C4000D2029A61094B1A88002A09D01A88013AFF
:100C500092B21A80002A03D18022034B92029A6139
:100C60007047C04690000020004400418E000020E4
:100C7000F0B591B008A9CF4A0B1C31CA31C351CA93
:100C800051C360CA60C3CC4BCC489A687A255203E2
:100C9000520F92005258CA4902609C68A4B2624343
:100CA0000C60C84900240A60C74A1460C74C25700C
:100CB000C74CC84D2368281C1B6940219847002851
:100CC00006D0C54B802292025A61C44B64221A801E
:100CD000C34B00221860C34B1D60C34BC24DC04FB5
:100CE0001A602A683B689A42E2D2BE4B1B681A78A7
:100CF000FF2A00D11FE2232A00D0F6E1BB4E337851
:100D0000002B06D0B24BBA491B680222D868FFF705
:100D100021FFAE4B1B78532B40D13B682A6893428E
:100D20001ED9B04801322A609A1AB24B01681B687A
:100D300001310160B04E9A4201D2326000E033606E
:100D4000A14832680068049000F022FA33682968EC
:100D50005A182A60A34A1668F1181160A74A13703E
:100D60002B68013B2B609F4B1A68013A1A60A34B1A
:100D7000A04A1B7811688B420ED222689248C91A89
:100D8000006892699047002806D0934B8022920217
:100D90005A61924B64221A80C04694E1522B0ED1C4
:100DA0008948944A2368006811685B6903909847F2
:100DB000894B8022D2025A616422914B0DE04F2B65
:100DC00005D1814B8B4A1B6812681A707BE1482B56
:100DD00005D17D4B874A1B6812681A8073E1572B37
:100DE00005D1794B834A1B6812681A606BE16F2B3F
:100DF00003D1754B0121186807E0682B08D1724BAD
:100E00007C481B6802211B880360FFF7BFFE5AE184
:100E1000772B06D16C4B77481B6804211B68036055
:100E2000F3E7472B13D1734B1868FFF7EFFE754BB1
:100E30001B6883F3088862B6734B1B78002B00D1C4
:100E400041E1634B06201B681B6898473BE1542B2C
:100E500004D1012333705E4B1B6864E04E2B0CD130
:100E60003378002B06D15A4B61491B680222D8689F
:100E7000FFF770FE0023337025E1562B57D123680E
:100E80006249D8680122FFF765FE23686049D86887
:100E90000322FFF75FFE5F4D2368291CD8680122FB
:100EA000FFF758FE23685C49D8680D22FFF752FE11
:100EB0002368291CD8680122FFF74CFE494F4A4D90
:100EC0005649002339602B603A1C281C13685E1CAD
:100ED00016601B780593002B03D003680133036071
:100EE000F4E73B4E2A683368D868FFF733FE33686F
:100EF0004849D8680122FFF72DFE05992960484925
:100F00003960384A1368581C10601B78002B04D0D5
:100F1000354B1A6801321A60F3E733682A68D868DB
:100F2000FFF718FE3368D86831490222C9E0314A18
:100F3000582B17D1214E234D366813682A68B1000B
:100F400093420AD21C4D5808E861364828801A4D51
:100F5000287DC607FBD55B18F2E71D4B32491B689D
:100F6000D868ADE0592B7CD11268174B2F49002A65
:100F700002D11B680B606FE00F4D086819686B6841
:100F80000D4E8025AB4392087360002A64D0284B35
:100F9000094D2B80084E337DDD07FBD50023074D1F
:100FA0002D680195AD08AB4246D3224D024E3580E7
:100FB00049E0C04610120000004000413C02002001
:100FC0003402002030020020800200202C02002089
:100FD0008402002040020020004400418E000020D6
:100FE0002402002028020020380200208C0000206B
:100FF000541200008C0200209002002020020020E9
:101000009000002088020020920000203012000092
:1010100059120000321200007C120000341200004D
:101020004012000002A5FFFF4912000088000020C6
:1010300044A5FFFF04A5FFFF9342B6D09D0046598B
:1010400001334E51ABE7404E357DEE07FBD59D0099
:1010500049194019D21A98E73C4B3D491B68D8689A
:101060002EE05A2B2FD13B4B17681D680026EF1935
:10107000BD4206D02878311C00F07EF80135061CF0
:10108000F6E7324B34491B680122D868FFF762FD4E
:1010900007230F223240111C36093031092A00DDA6
:1010A00007311820C0186A468154013BF1D22368E9
:1010B00006A9D8680822FFF74DFD23682749D8689C
:1010C0000322FFF747FD264B7A221A70254B002298
:1010D0001A60254B1B7893422DD01C4B23491B686B
:1010E0000122D868FFF736FD25E0111C3039C8B25F
:1010F0001C4B092804D81D682A01114319601AE005
:10110000111C4139052903D81E68373A310106E020
:10111000111C6139052904D81868573A01010A439E
:1011200008E02C2A03D10B4A1968116001E00C4930
:101130000A7000221A600E4B1A6801321A600D4BB9
:101140001A680132CAE5C04600400041840200200E
:101150004D120000800200205112000053120000C6
:101160002C0200208C0200208C000020571200006E
:1011700038020020280200200B0A5840034B400090
:10118000C05A0902484080B27047C0468A12000027
:1011900010B50023934203D0CC5CC4540133F9E76B
:1011A00010BD031C8218934202D019700133FAE774
:1011B00070470023C25C0133002AFBD1581E7047E0
:1011C000F8B5C046F8BC08BC9E467047F8B5C046A6
:1011D000F8BC08BC9E467047040309045477696C48
:1011E0006967687420436972637569747300466542
:1011F00061746865726C69676874000012010002AE
:10120000020000400912010000020102000100007A
:101210000800000010000000200000004000000056
:101220008000000000010000000200000004000037
:101230007600200044656320323920323031360098
:1012400031343A33393A313900580A0D00590A0D10
:10125000005A00230A0D003E00322E30000000002C
:101260007D0A0000990A0000B50A0000D90A0000B2
:10127000F50A0000D90A00001D0B00005B417264F2
:1012800075696E6F3A58595A5D000000211042206E
:1012900063308440A550C660E770088129914AA157
:1012A0006BB18CC1ADD1CEE1EFF1311210027332CE
:1012B0005222B5529442F772D662399318837BB3A7
:1012C0005AA3BDD39CC3FFF3DEE36224433420045E
:1012D0000114E664C774A44485546AA54BB52885F7
:1012E0000995EEE5CFF5ACC58DD5533672261116AE
:1012F0003006D776F6669556B4465BB77AA7199747
:101300003887DFF7FEE79DD7BCC7C448E558866835
:10131000A7784008611802282338CCC9EDD98EE996
:10132000AFF9488969990AA92BB9F55AD44AB77A0D
:10133000966A711A500A333A122AFDDBDCCBBFFBE6
:101340009EEB799B588B3BBB1AABA66C877CE44C1D
:10135000C55C222C033C600C411CAEED8FFDECCD36
:10136000CDDD2AAD0BBD688D499D977EB66ED55EED
:10137000F44E133E322E511E700E9FFFBEEFDDDF86
:10138000FCCF1BBF3AAF599F788F8891A981CAB112
:10139000EBA10CD12DC14EF16FE18010A100C23044
:1013A000E3200450254046706760B9839893FBA3FF
:1013B000DAB33DC31CD37FE35EF3B1029012F32294
:1013C000D2323542145277625672EAB5CBA5A8954F
:1013D00089856EF54FE52CD50DC5E234C324A014E4
:1013E00081046674476424540544DBA7FAB79987DF
:1013F000B8975FE77EF71DC73CD7D326F236910634
:10140000B01657667676154634564CD96DC90EF926
:101410002FE9C899E9898AB9ABA944586548067883
:101420002768C018E1088238A3287DCB5CDB3FEB3E
:101430001EFBF98BD89BBBAB9ABB754A545A376AD3
:10144000167AF10AD01AB32A923A2EFD0FED6CDD0E
:101450004DCDAABD8BADE89DC98D267C076C645C23
:10146000454CA23C832CE01CC10C1FEF3EFF5DCF1E
:101470007CDF9BAFBABFD98FF89F176E367E554E73
:10148000745E932EB23ED10EF01E000000000000EC
:101490000114000009024300020100803209040027
:1014A00000010202000005240010010424020005CE
:1014B000240600010524010001070583030800FF3D
:1014C00009040100020A0000000705810240000033
:1014D000070502024000000000C2010000000800F1
:0C14E00069000000410000000000000056
:040000030000057D77
:00000001FF
